:020000040800F2
:10000000C8310020E95C0008A9040008AB0400081E
:10001000AF040008B3040008B704000800000000A3
:10002000000000000000000000000000BB04000809
:10003000BD04000800000000BF040008C10400085F
:10004000035D0008035D0008035D0008035D000810
:10005000035D0008035D0008035D0008035D000800
:10006000035D0008035D0008035D0008035D0008F0
:10007000035D0008035D0008035D0008035D0008E0
:10008000035D0008035D0008035D0008035D0008D0
:10009000035D0008035D0008035D0008035D0008C0
:1000A000035D0008035D0008035D0008035D0008B0
:1000B000035D0008035D0008035D0008035D0008A0
:1000C000035D0008035D0008035D0008035D000890
:1000D000035D0008575C00085F5A0008035D0008D4
:1000E000035D0008035D0008035D0008035D000870
:1000F000035D0008035D0008035D0008035D000860
:10010000035D0008035D0008035D0008035D00084F
:10011000035D0008035D0008035D0008035D00083F
:10012000035D0008035D0008035D0008035D00082F
:1001300000F002F800F042F80AA090E8000C8244B7
:100140008344AAF10107DA4501D100F037F8AFF294
:10015000090EBAE80F0013F0010F18BFFB1A43F0A5
:100160000103184718C9000038C90000103A24BF1D
:1001700078C878C1FAD8520724BF30C830C144BF0C
:1001800004680C607047000000230024002500264E
:10019000103A28BF78C1FBD8520728BF30C148BFEA
:1001A0000B607047642906F03787732907F0C78012
:1001B000002070471FB51FBD10B510BD07F00CF92A
:1001C0001146FFF7F7FF00F009F807F02AF903B42A
:1001D000FFF7F2FF03BC05F0DFFC0000E8B005F01C
:1001E00071FC4FF4A06005F09FFD4FF4165005F030
:1001F000E6FC05F08FFB05F041FA05F075F801F01B
:10020000FAF800209D4908804FF6FF7001F0C1F810
:1002100033E11A2015214FF4AF721346CDE90021C6
:10022000029000221E21202005F025F810200E212A
:100230004FF4AF721346CDE90021029046221146D9
:10024000202005F018F82B2026214FF4AF7213461A
:10025000CDE90021029078223221202005F00BF810
:100260004FF0000829E005F0A3FB85A104A805F0E4
:10027000DEFA0746844806F01DFFFAB204A9834857
:1002800005F0A0FB4FF47A7005F059FC8048006837
:1002900098B1C02405E07C48005D7E490855601C8B
:1002A00084B2B4F5C87FF6DB0020794908604FF0CE
:1002B00001084FF6FF7001F06CF8B8F1000FD2D0D2
:1002C0004FF00009D5E005F04EF885B21A2015214F
:1002D0004FF4AF721346CDE90021029000221E2197
:1002E000202004F0C8FF092007214FF4AF72134605
:1002F000CDE90021029046221146202004F0BBFFE8
:100300000D200A214FF4AF721346CDE9002102906F
:1003100078223221202004F0AEFF322030214FF429
:10032000AF721346CDE900210290AA224621202077
:1003300004F0A1FF2F202C214FF4AF721346CDE91A
:1003400000210290DC223221202004F094FF012DB4
:1003500076D14FF6FF7001F01CF81A2015214FF4EA
:10036000AF721346CDE90021029000221E21202009
:1003700004F081FF10200E214FF4AF721346CDE937
:100380000021029046221146202004F074FF142020
:1003900011214FF4AF721346CDE90021029078226B
:1003A0003221202004F067FF00260DE000BF40212D
:1003B000394806F051FA0128F9D13648815D3648AE
:1003C00006F0DCF9701C86B2B6F5C87FEEDB33A010
:1003D00006F0A4FD0020334908804FF47A7005F040
:1003E000AEFB4FF6FF7000F0D4FF1A2015214FF43A
:1003F000AF721346CDE90021029000221E21202079
:1004000004F039FF1E201B214FF4AF721346CDE9D3
:100410000021029078223221202004F02CFF252098
:100420001F214FF4AF721346CDE900210290A022A4
:100430000021202004F01FFF04F095FF85B203E0A7
:100440000CE004F090FF85B2142DFAD0032DF8D102
:100450004FF001094FF6FF7000F09BFF032D08D10C
:100460004FF0010900200F4908804FF6FF7000F09F
:1004700090FFB9F1000F3FF426AFCAE61400002048
:1004800064657461696C0000520000200044004003
:100490002000002052040020003801400D0A0D0AFF
:1004A000000000002C000020704700BFFEE700BFE6
:1004B000FEE700BFFEE700BFFEE7704770477047EA
:1004C000704700000CB50020019000906C48006857
:1004D00040F480306A49086000BF6948006800F451
:1004E000003000900198401C0190009818B90198C4
:1004F000B0F5A06FF1D16248006800F4003010B18F
:100500000120009001E0002000900098012843D1D4
:100510005C48006840F010005A49086008460068CE
:1005200020F0030008600846006840F00200086000
:100530005348406852494860084640684860084649
:10054000406840F4806048600846406820F47C10B1
:1005500048600846406840F4E81048600846006873
:1005600040F08070086000BF4548006800F00070EF
:100570000028F9D04248406820F003004049486014
:100580000846406840F00200486000BF3C484068B0
:1005900000F00C000828F9D10CBD10B5FFF792FF50
:1005A00010BD10B53648006840F0010034490860BD
:1005B00008464068344908403149486008460068A8
:1005C000324908402E4908600846006820F480201F
:1005D00008600846406820F4FE0048604FF41F00A1
:1005E0008860FFF7DAFF4FF000602949086010BD0E
:1005F00010B5002100200022214B5B6803F00C01A4
:1006000021B1042906D0082928D107E0214B224C2A
:10061000236027E01F4B204C236023E0184B5B68CE
:1006200003F47010164B5B6803F48032022303EB73
:10063000904022B9194B4343174C23600DE0104BF7
:100640005B6803F4003323B1144B4343124C236023
:1006500003E0104B4343104C236003E00D4B0E4C62
:10066000236000BF00BF064B5B68C3F303130C4C51
:10067000E15C094B1B68CB40074C236010BD0000B8
:1006800000100240002002400000FFF8FFFFF6FECD
:1006900008ED00E000127A000000002000093D0093
:1006A00004000020F74908807047F649891C08803B
:1006B000704708B5F348801C00880090BDF8000022
:1006C00008BDF04A1080921C1180704710B5044696
:1006D0002046FFF7E7FF052005F00DFAFFF7E9FFD9
:1006E00010BDE9480089E74908807047E549891C41
:1006F0000880704730B5014601F01F04C1F345136F
:10070000CA0AE50205EB43151544A8B230BD00BF87
:10071000011EA0F10102D0B2FAD1704710B5034614
:100720000C46D948808849F24131884205D0D648E4
:10073000808845F21031884214D1D3494889FFF7A7
:10074000B1FF1812FFF7B1FFD8B2FFF7AEFFCE49E5
:100750008889FFF7A7FF2012FFF7A7FFE0B2FFF796
:10076000A4FFABE0C848808846F6040188421DD14A
:10077000C5488079012804D1C3480088401EC01AAA
:1007800083B2C1494889FFF78DFF1812FFF78DFF2B
:10079000D8B2FFF78AFFBC498889FFF783FF201290
:1007A000FFF783FFE0B2FFF780FF87E0B64880885D
:1007B00041F66311884247D1B3488079A8B9B2485D
:1007C0000088401EC01A83B2AF494889FFF76AFF0C
:1007D0000020FFF76AFF0020FFF767FF1812FFF7FE
:1007E00064FFD8B2FFF761FF16E0A7494889FFF719
:1007F00059FF1812FFF759FFD8B2FFF756FFA24969
:100800000988491EC1F30F20FFF74FFF9E49097861
:10081000491EC8B2FFF749FF9B498889FFF742FF8D
:100820002012FFF742FFE0B2FFF73FFF96494988E9
:10083000491EC1F30F20FFF738FF93498978491EFD
:10084000C8B2FFF732FF39E08F48808845F2105177
:10085000884220D18C494889FFF724FF1812FFF7FE
:1008600024FF89494989491C88B2FFF71BFFD8B288
:10087000FFF71BFF84498889FFF714FF2012FFF759
:1008800014FF81498989491C88B2FFF70BFFE0B248
:10089000FFF70BFF12E07C488079012804D17A48E9
:1008A0000088401EC01A83B2774948891946FFF76D
:1008B00008FF754988892146FFF703FF10BD2DE920
:1008C000F04105460E4600240027A0466E480088E9
:1008D000A84203DD6C484088B04202DC0020BDE83D
:1008E000F08131462846FFF719FF6748808849F2B2
:1008F0004131884211D06448808846F6040188421C
:100900000BD06148808845F21031884205D05E489E
:10091000808841F66311884203D12E20FFF7C2FE82
:100920000DE05948808845F21051884204D14FF4B7
:100930003850FFF7B7FE02E02220FFF7B3FE52481F
:10094000808849F22031884202D10220FFF7DFFE81
:10095000FFF7AFFE04464C48808841F66311884299
:1009600001D12046BBE70220FFF7D1FEFFF7A1FE31
:1009700004464548808849F2413188420BD04248BC
:10098000808845F21031884205D03F48808845F282
:10099000105188420AD10220FFF7B9FEFFF789FE05
:1009A0008046E7B24FF6FF7000EA07273648808896
:1009B00049F22531884216D03348808844F23551B7
:1009C000884210D030488088091F88420BD02E48BA
:1009D00080884BF20551884205D02B4880884CF224
:1009E0000551884201D1204679E72748808849F29D
:1009F000413188420BD02448808845F2103188422A
:100A000005D02148808845F21051884207D1E01274
:100A1000C002B91240EA411040EAE8205FE72046F0
:100A2000FFF768FE5BE700B51748808849F241315F
:100A3000884211D01448808846F6040188420BD0C1
:100A40001148808845F21031884205D00E488088D0
:100A500041F66311884203D12920FFF723FE0FE0FE
:100A60000948808845F21051884204D14FF424503F
:100A7000FFF718FE04E040F273110720FFF721FE94
:100A800000BD0000FE07006C4400002000B5FD48DA
:100A9000808849F24131884211D0FA48808846F670
:100AA000040188420BD0F748808845F21031884213
:100AB00005D0F448808841F66311884203D128208C
:100AC000FFF7F0FD0EE0EF48808845F210518842B4
:100AD00004D14FF42050FFF7E5FD03E0002107208B
:100AE000FFF7EFFD00BD70B5044600230026E54882
:100AF000807901280BD1E348808846F604018842BA
:100B000005D0E048808841F66311884208D1DD486D
:100B10008079F0B9DB48808841F66311884218D1AA
:100B2000082C15D2DFE804F00406080A0C0E101297
:100B300006240DE007240BE0042409E0052407E067
:100B4000012405E0002403E0032401E0022400BFA7
:100B500000BFCC48808849F24131884217D0C9484B
:100B6000808846F60401884211D0C648808845F244
:100B7000103188420BD0C348808845F2105188421A
:100B800005D0C048808841F6631188427ED1082C88
:100B90001CD2DFE804F00406090C0F12151800BF80
:100BA00014E043F0800311E043F040030EE043F013
:100BB000C0030BE043F0200308E043F0600305E0CE
:100BC00043F0A00302E043F0E00300BF00BFAD48E4
:100BD000808845F21051884202D14FF4585600E007
:100BE0003626A848808845F2103188420DD0A548A5
:100BF000808845F21051884207D0A248808841F68B
:100C00006311884201D043F008039E48808846F66D
:100C10000401884201D143F0020319463046FFF730
:100C200050FD9848808841F6631188421DD003F03A
:100C3000200068B19348008892494988884214DAB4
:100C40009048058840888F490880084645800CE018
:100C50008C4800888B494988884206DD8948058888
:100C6000408888490880084645808648808845F243
:100C70001051884254D183494889FFF713FD002061
:100C8000FFF713FD7F494989491C00E077E088B2EE
:100C9000FFF708FD0020FFF708FD7A494989891C04
:100CA00088B2FFF7FFFC77490988491EC1F30F207E
:100CB000FFF7FBFC73494989C91C88B2FFF7F2FCB6
:100CC00070490978491EC8B2FFF7EFFC6D49888961
:100CD000FFF7E8FC0020FFF7E8FC6A498989491C16
:100CE00088B2FFF7DFFC0020FFF7DFFC6549898948
:100CF000891C88B2FFF7D6FC62494988491EC1F3B6
:100D00000F20FFF7D2FC5F498989C91C88B2FFF721
:100D1000C9FC5C498978491EC8B2FFF7C6FC55E09A
:100D200058494889FFF7BEFC0020FFF7BEFC0020B1
:100D3000FFF7BBFC53490988491EC1F30F20FFF799
:100D4000B4FC50490978491EC8B2FFF7AEFC4D49C2
:100D50008889FFF7A7FC0020FFF7A7FC0020FFF71A
:100D6000A4FC48494988491EC1F30F20FFF79DFCA8
:100D700044498978491EC8B2FFF797FC26E0082C41
:100D80001CD2DFE804F004070A0D0F12151843F017
:100D9000300313E043F0100310E043F020030DE0B4
:100DA00000BF0BE043F0380308E043F0280305E000
:100DB00043F0180302E043F0080300BF00BF03261E
:100DC00043F4805319463046FFF77BFC70BD30B5C5
:100DD00004460D4629462046FFF7A0FCFFF781FC9C
:100DE000294800882949088030BD30B503460C46A3
:100DF00015462448808849F24131884205D021486F
:100E0000808845F21031884214D11E494889FFF785
:100E100049FC1812FFF749FCD8B2FFF746FC194904
:100E20008889FFF73FFC2012FFF73FFCE0B2FFF795
:100E30003CFC93E01348808845F21051884227D14A
:100E400010494889FFF72EFC1812FFF72EFC0D49B8
:100E50004989491C88B2FFF725FCD8B2FFF725FC69
:100E600008498889FFF71EFC2012FFF71EFC054980
:100E70008989491C88B2FFF715FCE0B2FFF715FC21
:100E80006CE0000044000020140000200008006C0A
:100E9000FC48808841F66311884228D1F94880795E
:100EA00020B9F8480088401EC01A83B2F549488925
:100EB000FFF7F8FB1812FFF7F8FBD8B2FFF7F5FBC6
:100EC0001812FFF7F2FBD8B2FFF7EFFBED49888964
:100ED000FFF7E8FB2012FFF7E8FBE0B2FFF7E5FBC6
:100EE0002012FFF7E2FBE0B2FFF7DFFB36E0E54858
:100EF000808846F6040188421DD1E24880790128A5
:100F000004D1E0480088401EC01A83B2DD494889F8
:100F1000FFF7C8FB1812FFF7C8FBD8B2FFF7C5FBF5
:100F2000D8498889FFF7BEFB2012FFF7BEFBE0B26D
:100F3000FFF7BBFB12E0D3488079012804D1D148E8
:100F40000088401EC01A83B2CE4948891946FFF76F
:100F5000B8FBCC4988892146FFF7B3FBC948008913
:100F6000C9490880881C058030BD2DE9F04704463A
:100F7000BE20FFF797FB0520FFF797FB204606F002
:100F80008AFA07464FF06632C04B06F097FA0546DC
:100F900006F054FA1FFA80F94846FFF786FB012055
:100FA000FFF783FBFF20FFF780FB0020FFF77DFBAF
:100FB0000020FFF77AFBBDE8F08710B50446002C4F
:100FC00066D1B0498871F02008804FF4A070488045
:100FD0000846808849F2413188420BD0A948808870
:100FE00046F60401884205D0A648808845F21031B3
:100FF00088421AD12C20A34908812A2048812B201D
:1010000088810846808846F60401884205D09D48BC
:10101000808845F21031884206D14FF4A07099497A
:1010200008804FF4F0704880A1E09648808845F22F
:101030001051884210D14FF43050924908814FF43A
:10104000285048814FF42C5088814FF4F07008806C
:101050004FF4487048808AE08A48808841F66311DE
:1010600088420DD12C20874908812B2048812A20D5
:1010700088814FF4F07008804FF44870488076E023
:1010800022208049088120204881212088816EE02B
:1010900001207C4988714FF4A0700880F0204880BE
:1010A0000846808849F24131884205D075488088D9
:1010B00045F21031884207D12C20724908812A203C
:1010C00048812B2088813FE06E48808846F60401E5
:1010D000884207D12C206B4908812B2048812A2087
:1010E000888131E06748808845F21051884210D1EC
:1010F0004FF43050634908814FF4285048814FF431
:101100002C5088814FF4487008804FF4F07048806C
:101110001AE05C48808841F6631188420DD12C208A
:10112000584908812A2048812B2088814FF4487033
:1011300008804FF4F070488006E022205149088171
:1011400021204881202088814E48808846F604016D
:10115000884205D04B48808845F21031884206D13C
:101160004FF4F070474908804FF4A0704880032086
:10117000FFF7B9FC10BD2DE9F04F86B004460D46CF
:101180009046994604EB0800401E86B205EB090024
:10119000401E87B23B48808849F24131884215D0D1
:1011A0003848808845F2103188420FD03548808811
:1011B00046F60401884209D032488079012826D1B8
:1011C0003048808841F66311884220D12D494889F2
:1011D000FFF768FA2012FFF768FAE0B2FFF765FA46
:1011E0003012FFF762FAF0B2FFF75FFA25498889FB
:1011F000FFF758FA2812FFF758FAE8B2FFF755FA46
:101200003812FFF752FAF8B2FFF74FFABEE01D4866
:10121000808841F6631188423AD11A480088A0EBD1
:101220000800001B84B205EB0900401E1FFA80F97C
:1012300014494889FFF736FA2012FFF736FAE0B270
:10124000FFF733FA04EB0801491EC1F30F20FFF743
:101250002CFA04EB0801491EC8B2FFF726FA094927
:101260008889FFF71FFA2812FFF71FFAE8B2FFF785
:101270001CFA4FEA2920FFF718FA09F0FF00FFF7E0
:1012800014FA83E044000020FE07006C6666044008
:10129000FE48808845F21051884244D1FB49488974
:1012A000FFF700FA2012FFF700FAF8494989491CB4
:1012B00088B2FFF7F7F9E0B2FFF7F7F9F349498988
:1012C000891C88B2FFF7EEF93012FFF7EEF9EF490B
:1012D0004989C91C88B2FFF7E5F9F0B2FFF7E5F9D3
:1012E000EA498889FFF7DEF92812FFF7DEF9E749B6
:1012F0008989491C88B2FFF7D5F9E8B2FFF7D5F91B
:10130000E2498989891C88B2FFF7CCF93812FFF7C6
:10131000CCF9DE498989C91C88B2FFF7C3F9F8B254
:10132000FFF7C3F932E0D948807901280ED1AA46E7
:10133000BB46D6480088801B401E80B20190D3482F
:101340000088001B401E80B2009003E0A246B34616
:101350000195009750200590512004905220039051
:101360005320029051460598FFF7ABF9594604986F
:10137000FFF7A7F901990398FFF7A3F900990298DD
:10138000FFF79FF929462046FFF7C8F906B0BDE8E8
:10139000F08F70B504460026BC4805884088454358
:1013A000BA48808846F60401884216D1B748807949
:1013B000012812D10020B54988712A2048812B20AC
:1013C000888100210846FFF7A9F90120AF498871FB
:1013D0002B2048812A20888103E000210846FFF75E
:1013E0009DF9FFF77EF9002602E0A9480480761CEB
:1013F000AE42FAD370BD00B597B00121080205F0E6
:1014000010F801214FF4B07005F018F84FF40050B7
:10141000ADF8580010208DF85B0003208DF85A00BD
:1014200016A99C4804F04EFD4CF23370ADF85800FC
:1014300018208DF85B0003208DF85A0016A99548F6
:1014400004F040FD4FF68070ADF8580018208DF87C
:101450005B0003208DF85A0016A98F4804F032FD76
:1014600041F20100ADF8580018208DF85B00032010
:101470008DF85A0016A9894804F024FD0220009036
:101480000020019005200290002003900490059018
:101490004FF0805006900620079000200890099099
:1014A00010200A9000200B900D900C900E900F9041
:1014B0004FF480501090002011904FF48040129013
:1014C00000201390CDF850D0CDF854D007A805F0E7
:1014D00069FA0121062005F0CDFB322004F02FFB34
:1014E0000020FFF7F3F86949888008468088FF28C4
:1014F0000ADB084680884FF6FF71884204D06348B3
:101500008088B0F5134F7CD1D320FFF7CBF8FFF7DD
:10151000D0F85E498880FFF7CCF85C498880FFF7F7
:10152000C8F85A498880084680884FF6FF7101EA5A
:10153000002056498880FFF7BCF854498988084341
:10154000524988800846808849F24131884258D003
:10155000BF20FFF7A7F8FFF7ACF84C498880FFF7EA
:10156000A8F84A498880FFF7A4F848498880FFF71F
:10157000A0F846498880084680884FF6FF7101EA46
:10158000002042498880FFF794F840498988084341
:101590003E4988800846808846F60401884230D05B
:1015A000D420FFF77FF8FFF784F838498880FFF7E9
:1015B00080F836498880FFF77CF8344988800846EF
:1015C00080884FF6FF7101EA002030498880FFF7DC
:1015D00070F82E49898808432C49888008468088FD
:1015E00045F21031884261D04FF45A40FFF75AF863
:1015F000FFF75FF8254988804FF45B40FFF752F80A
:1016000000E053E0FFF755F82049888008468088BD
:101610004FF6FF7101EA00201C4988804FF45C40BE
:10162000FFF740F8FFF745F818498988084317493C
:10163000888008468088B0F5004F02D145F21050EE
:1016400088801248808845F2105188422ED0A1200F
:10165000FFF728F8FFF72DF80C498880FFF729F8E5
:101660000A498880084680884FF6FF7101EA002009
:1016700006498880FFF71DF8044989880843034913
:1016800088800846808845F2617109E044000020A6
:101690000008006C001401400018014000200140C7
:1016A000884203D141F66310FE498880FD48808856
:1016B00049F2413188427CD1CF20FEF7F3FF002070
:1016C000FEF7F3FFC120FEF7F0FF3020FEF7EDFF3D
:1016D000ED20FEF7E7FF6420FEF7E7FF0320FEF7AB
:1016E000E4FF1220FEF7E1FF8120FEF7DEFFE82095
:1016F000FEF7D8FF8520FEF7D8FF1020FEF7D5FFB4
:101700007A20FEF7D2FFCB20FEF7CCFF3920FEF780
:10171000CCFF2C20FEF7C9FF0020FEF7C6FF3420C7
:10172000FEF7C3FF0220FEF7C0FFF720FEF7BAFF67
:101730002020FEF7BAFFEA20FEF7B4FF0020FEF7F4
:10174000B4FF0020FEF7B1FFC020FEF7ABFF1B2067
:10175000FEF7ABFFC120FEF7A5FF0120FEF7A5FFB6
:10176000C520FEF79FFF3020FEF79FFF3020FEF7D9
:101770009CFFC720FEF796FFB720FEF796FF3620A6
:10178000FEF790FF4820FEF790FF3A20FEF78AFF11
:101790005520FEF78AFFB120FEF784FF0020FEF7F8
:1017A00084FF1A20FEF781FFB620FEF77BFF0A2098
:1017B00000E099E0FEF779FFA220FEF776FFF22025
:1017C000FEF770FF0020FEF770FF2620FEF76AFF8D
:1017D0000120FEF76AFFE020FEF764FF0F20FEF70E
:1017E00064FF2A20FEF761FF2820FEF75EFF082035
:1017F000FEF75BFF0E20FEF758FF0820FEF755FFAF
:101800005420FEF752FFA920FEF74FFF4320FEF7BA
:101810004CFF0A20FEF749FF0F20FEF746FF00208D
:10182000FEF743FF0020FEF740FF0020FEF73DFFDC
:101830000020FEF73AFFE120FEF734FF0020FEF71C
:1018400034FF1520FEF731FF1720FEF72EFF07208B
:10185000FEF72BFF1120FEF728FF0620FEF725FFDD
:101860002B20FEF722FF5620FEF71FFF3C20FEF73D
:101870001CFF0520FEF719FF1020FEF716FF0F20B2
:10188000FEF713FF3F20FEF710FF3F20FEF70DFF8E
:101890000F20FEF70AFF2B20FEF704FF0020FEF7C3
:1018A00004FF0020FEF701FF0120FEF7FEFE3F20AF
:1018B000FEF7FBFE2A20FEF7F5FE0020FEF7F5FE00
:1018C0000020FEF7F2FE0020FEF7EFFEEF20FEF70D
:1018D000ECFE1120FEF7E6FE782004F030F9292016
:1018E000FEF7E0FE03F01DB96E48808846F604015D
:1018F00088427CD11120FEF7D5FE142004F01FF998
:10190000D020FEF7CFFE0720FEF7CFFE4220FEF7E5
:10191000CCFE1D20FEF7C9FED120FEF7C3FE00203D
:10192000FEF7C3FE1A20FEF7C0FE0920FEF7BDFE3B
:10193000D220FEF7B7FE0120FEF7B7FE2220FEF709
:10194000B4FEC020FEF7AEFE1020FEF7AEFE3B2038
:10195000FEF7ABFE0020FEF7A8FE0220FEF7A5FE74
:101960001120FEF7A2FEC520FEF79CFE0320FEF725
:101970009CFEC820FEF796FE0020FEF796FE25206E
:10198000FEF793FE2120FEF790FE0520FEF78DFE68
:101990000020FEF78AFE0A20FEF787FE6520FEF78C
:1019A00084FE2520FEF781FE7720FEF77EFE502084
:1019B000FEF77BFE0F20FEF778FE0020FEF775FE97
:1019C000F820FEF76FFE0120FEF76FFEFE20FEF707
:1019D00069FE0020FEF769FE0220FEF766FE202069
:1019E000FEF760FE3620FEF75DFE082000E02CE0EA
:1019F000FEF75BFE3A20FEF755FE5520FEF755FE3A
:101A00002B20FEF74FFE0020FEF74FFE0020FEF7D2
:101A10004CFE0120FEF749FE3F20FEF746FE2A203D
:101A2000FEF740FE0020FEF740FE0020FEF73DFEE0
:101A30000120FEF73AFEDF20FEF737FE782004F0A3
:101A40007EF82920FEF72EFE4CE71648808845F2E6
:101A50001031884240F07C87ED20FEF723FE012004
:101A6000FEF723FEFE20FEF720FEEE20FEF71AFE14
:101A7000DE20FEF71AFE2120FEF717FEF120FEF70A
:101A800011FE0120FEF711FEDF20FEF70BFE1020F5
:101A9000FEF70BFEC420FEF705FE8F20FEF705FEC5
:101AA000C62001E044000020FEF7FCFD0020FEF708
:101AB000FCFDE220FEF7F9FDE220FEF7F6FDE22054
:101AC000FEF7F3FDBF20FEF7EDFDAA20FEF7EDFDCA
:101AD000B020FEF7E7FD0D20FEF7E7FD0020FEF742
:101AE000E4FD0D20FEF7E1FD0020FEF7DEFD1120F4
:101AF000FEF7DBFD0020FEF7D8FD1920FEF7D5FD2F
:101B00000020FEF7D2FD2120FEF7CFFD0020FEF7DA
:101B1000CCFD2D20FEF7C9FD0020FEF7C6FD3D20BF
:101B2000FEF7C3FD0020FEF7C0FD5D20FEF7BDFD02
:101B30000020FEF7BAFD5D20FEF7B7FD0020FEF79E
:101B4000B4FDB120FEF7AEFD8020FEF7AEFD002013
:101B5000FEF7ABFD8B20FEF7A8FD0020FEF7A5FDEC
:101B60009620FEF7A2FD0020FEF79FFDB220FEF7B3
:101B700099FD0020FEF799FD0020FEF796FD02205A
:101B8000FEF793FD0020FEF790FD0320FEF78DFD8C
:101B90000020FEF78AFDB320FEF784FD0020FEF74B
:101BA00084FD0020FEF781FD0020FEF77EFD002071
:101BB000FEF77BFD0020FEF778FD0020FEF775FDA7
:101BC0000020FEF772FD0020FEF76FFD0020FEF7FB
:101BD0006CFD0020FEF769FD0020FEF766FD002089
:101BE000FEF763FD0020FEF760FD0020FEF75DFDBF
:101BF0000020FEF75AFD0020FEF757FD0020FEF7FB
:101C000054FD0020FEF751FD0020FEF74EFD0020A0
:101C1000FEF74BFD0020FEF748FD0020FEF745FDD6
:101C20000020FEF742FD0020FEF73FFDB420FEF746
:101C300039FD8B20FEF739FD0020FEF736FD96209A
:101C4000FEF733FD0020FEF730FDA120FEF72DFD4D
:101C50000020FEF72AFDB520FEF724FD0220FEF746
:101C600024FD0020FEF721FD0320FEF71EFD0020CD
:101C7000FEF71BFD0420FEF718FD0020FEF715FD02
:101C8000B620FEF70FFD0020FEF70FFD0020FEF747
:101C90000CFDB720FEF706FD0020FEF706FD002034
:101CA000FEF703FD3F20FEF700FD0020FEF7FDFCE0
:101CB0005E20FEF7FAFC0020FEF7F7FC6420FEF73A
:101CC000F4FC0020FEF7F1FC8C20FEF7EEFC002077
:101CD000FEF7EBFCAC20FEF7E8FC0020FEF7E5FC8D
:101CE000DC20FEF7E2FC0020FEF7DFFC7020FEF7B0
:101CF000DCFC0020FEF7D9FC9020FEF7D6FC00208B
:101D0000FEF7D3FCEB20FEF7D0FC0020FEF7CDFC65
:101D1000DC20FEF7CAFC0020FEF7C7FCB820FEF767
:101D2000C1FC0020FEF7C1FC0020FEF7BEFC002035
:101D3000FEF7BBFC0020FEF7B8FC0020FEF7B5FC68
:101D40000020FEF7B2FC0020FEF7AFFC0020FEF7FB
:101D5000ACFCBA20FEF7A6FC2420FEF7A6FC00206F
:101D6000FEF7A3FC0020FEF7A0FC0020FEF79DFC80
:101D7000C120FEF797FC2020FEF797FC0020FEF71D
:101D800094FC5420FEF791FC0020FEF78EFCFF200F
:101D9000FEF78BFC0020FEF788FCC220FEF782FCD9
:101DA0000A20FEF782FC0020FEF77FFC0420FEF7ED
:101DB0007CFC0020FEF779FCC320FEF773FC3C207E
:101DC000FEF773FC0020FEF770FC3A20FEF76DFC76
:101DD0000020FEF76AFC3920FEF767FC0020FEF7C2
:101DE00064FC3720FEF761FC0020FEF75EFC3C201F
:101DF000FEF75BFC0020FEF758FC3620FEF755FC92
:101E00000020FEF752FC3220FEF74FFC0020FEF7C8
:101E10004CFC2F20FEF749FC0020FEF746FC2C204E
:101E2000FEF743FC0020FEF740FC2920FEF73DFCB6
:101E30000020FEF73AFC2620FEF737FC0020FEF7D4
:101E400034FC2420FEF731FC0020FEF72EFC242079
:101E5000FEF72BFC0020FEF728FC2320FEF725FCD4
:101E60000020FEF722FC3C20FEF71FFC0020FEF7BE
:101E70001CFC3620FEF719FC0020FEF716FC322071
:101E8000FEF713FC0020FEF710FC2F20FEF70DFCE0
:101E90000020FEF70AFC2C20FEF707FC0020FEF7CE
:101EA00004FC2920FEF701FC0020FEF7FEFB2620A3
:101EB000FEF7FBFB0020FEF7F8FB2420FEF7F5FB06
:101EC0000020FEF7F2FB2420FEF7EFFB0020FEF7D8
:101ED000ECFB2320FEF7E9FB0020FEF7E6FBC42025
:101EE000FEF7E0FB6220FEF7E0FB0020FEF7DDFBE3
:101EF0000520FEF7DAFB0020FEF7D7FB8420FEF773
:101F0000D4FB0020FEF7D1FBF020FEF7CEFB002033
:101F1000FEF7CBFB1820FEF7C8FB0020FEF7C5FB41
:101F2000A420FEF7C2FB0020FEF7BFFB1820FEF73F
:101F3000BCFB0020FEF7B9FB5020FEF7B6FB0020EB
:101F4000FEF7B3FB0C20FEF7B0FB0020FEF7ADFB65
:101F50001720FEF7AAFB0020FEF7A7FB9520FEF74F
:101F6000A4FB0020FEF7A1FBF320FEF79EFB002060
:101F7000FEF79BFBE620FEF798FB0020FEF795FBA3
:101F8000C520FEF78FFB3220FEF78FFB0020FEF707
:101F90008CFB4420FEF789FB0020FEF786FB6520C2
:101FA000FEF783FB0020FEF780FB7620FEF77DFB2B
:101FB0000020FEF77AFB8820FEF777FB0020FEF773
:101FC00074FBC620FEF76EFB2020FEF76EFB0020A0
:101FD000FEF76BFB1720FEF768FB0020FEF765FBA2
:101FE0000120FEF762FB0020FEF75FFBC720FEF733
:101FF00059FB0020FEF759FB0020FEF756FB00209E
:10200000FEF753FB0020FEF750FBC820FEF74AFB0B
:102010000020FEF74AFB0020FEF747FB0020FEF7FA
:1020200044FB0020FEF741FBC920FEF73BFB0020EC
:10203000FEF73BFB0020FEF738FB0020FEF735FBE8
:102040000020FEF732FB0020FEF72FFB0020FEF7FA
:102050002CFB0020FEF729FB0020FEF726FB0020CA
:10206000FEF723FB0020FEF720FB0020FEF71DFB00
:102070000020FEF71AFB0020FEF717FB0020FEF7FA
:1020800014FB0020FEF711FB0020FEF70EFBE02002
:10209000FEF708FB1620FEF708FB0020FEF705FB05
:1020A0001C20FEF702FB0020FEF7FFFA2120FEF7BE
:1020B000FCFA0020FEF7F9FA3620FEF7F6FA0020C7
:1020C000FEF7F3FA4620FEF7F0FA0020FEF7EDFAED
:1020D0005220FEF7EAFA0020FEF7E7FA6420FEF746
:1020E000E4FA0020FEF7E1FA7A20FEF7DEFA00209B
:1020F000FEF7DBFA8B20FEF7D8FA0020FEF7D5FAC0
:102100009920FEF7D2FA0020FEF7CFFAA820FEF7BA
:10211000CCFA0020FEF7C9FAB920FEF7C6FA002073
:10212000FEF7C3FAC420FEF7C0FA0020FEF7BDFA9E
:10213000CA20FEF7BAFA0020FEF7B7FAD220FEF75F
:10214000B4FA0020FEF7B1FAD920FEF7AEFA00206B
:10215000FEF7ABFAE020FEF7A8FA0020FEF7A5FA9A
:10216000F320FEF7A2FA0020FEF79FFAE120FEF727
:1021700099FA1620FEF799FA0020FEF796FA1C202D
:10218000FEF793FA0020FEF790FA2220FEF78DFA70
:102190000020FEF78AFA3620FEF787FA0020FEF7C5
:1021A00084FA4520FEF781FA0020FEF77EFA5220DD
:1021B000FEF77BFA0020FEF778FA6420FEF775FA46
:1021C0000020FEF772FA7A20FEF76FFA0020FEF781
:1021D0006CFA8B20FEF769FA0020FEF766FA992068
:1021E000FEF763FA0020FEF760FAA820FEF75DFA1A
:1021F0000020FEF75AFAB920FEF757FA0020FEF742
:1022000054FAC420FEF751FA0020FEF74EFACA2015
:10221000FEF74BFA0020FEF748FAD220FEF745FA07
:102220000020FEF742FAD820FEF73FFA0020FEF722
:102230003CFAE020FEF739FA0020FEF736FAF320E8
:10224000FEF733FA0020FEF730FAE220FEF72AFA12
:102250000520FEF72AFA0020FEF727FA0B20FEF7EA
:1022600024FA0020FEF721FA1B20FEF71EFA0020B8
:10227000FEF71BFA3420FEF718FA0020FEF715FAD5
:102280004420FEF712FA0020FEF70FFA4F20FEF767
:102290000CFA0020FEF709FA6120FEF706FA00208A
:1022A000FEF703FA7920FEF700FA0020FEF7FDF9A9
:1022B0008820FEF7FAF90020FEF7F7F99720FEF7DD
:1022C000F4F90020FEF7F1F9A620FEF7EEF9002060
:1022D000FEF7EBF9B720FEF7E8F90020FEF7E5F985
:1022E000C220FEF7E2F90020FEF7DFF9C720FEF773
:1022F000DCF90020FEF7D9F9D120FEF7D6F900204D
:10230000FEF7D3F9D620FEF7D0F90020FEF7CDF97D
:10231000DD20FEF7CAF90020FEF7C7F9F320FEF72B
:10232000C4F90020FEF7C1F9E320FEF7BBF9052050
:10233000FEF7BBF90020FEF7B8F90A20FEF7B5F961
:102340000020FEF7B2F91C20FEF7AFF90020FEF7DF
:10235000ACF93320FEF7A9F90020FEF7A6F94420D6
:10236000FEF7A3F90020FEF7A0F95020FEF79DF933
:102370000020FEF79AF96220FEF797F90020FEF799
:1023800094F97820FEF791F90020FEF78EF9882065
:10239000FEF78BF90020FEF788F99720FEF785F904
:1023A0000020FEF782F9A620FEF77FF90020FEF755
:1023B0007CF9B720FEF779F90020FEF776F9C22004
:1023C000FEF773F90020FEF770F9C720FEF76DF9EC
:1023D0000020FEF76AF9D120FEF767F90020FEF72A
:1023E00064F9D520FEF761F90020FEF75EF9DD20E3
:1023F000FEF75BF90020FEF758F9F320FEF755F9D8
:102400000020FEF752F9E420FEF74CF90120FEF718
:102410004CF90020FEF749F90120FEF746F90020AB
:10242000FEF743F90220FEF740F90020FEF73DF9E0
:102430002A20FEF73AF90020FEF737F93C20FEF794
:1024400034F90020FEF731F94B20FEF72EF9002079
:10245000FEF72BF95D20FEF728F90020FEF725F99D
:102460007420FEF722F90020FEF71FF98420FEF702
:102470001CF90020FEF719F99320FEF716F9002049
:10248000FEF713F9A220FEF710F90020FEF70DF970
:10249000B320FEF70AF90020FEF707F9BE20FEF789
:1024A00004F90020FEF701F9C420FEF7FEF8002031
:1024B000FEF7FBF8CD20FEF7F8F80020FEF7F5F860
:1024C000D320FEF7F2F80020FEF7EFF8DD20FEF74C
:1024D000ECF80020FEF7E9F8F320FEF7E6F800201C
:1024E000FEF7E3F8E520FEF7DDF80020FEF7DDF863
:1024F0000020FEF7DAF80020FEF7D7F80020FEF7FC
:10250000D4F80220FEF7D1F80020FEF7CEF82920FB
:10251000FEF7CBF80020FEF7C8F83C20FEF7C5F820
:102520000020FEF7C2F84B20FEF7BFF80020FEF7B0
:10253000BCF85D20FEF7B9F80020FEF7B6F874206D
:10254000FEF7B3F80020FEF7B0F88420FEF7ADF8F0
:102550000020FEF7AAF89320FEF7A7F80020FEF768
:10256000A4F8A220FEF7A1F80020FEF79EF8B32001
:10257000FEF79BF80020FEF798F8BE20FEF795F8CE
:102580000020FEF792F8C420FEF78FF80020FEF737
:102590008CF8CD20FEF789F80020FEF786F8D320CE
:1025A000FEF783F80020FEF780F8DC20FEF77DF8C8
:1025B0000020FEF77AF8F320FEF777F80020FEF708
:1025C00074F8E620FEF76EF81120FEF76EF8002092
:1025D000FEF76BF83420FEF768F80020FEF765F888
:1025E0005620FEF762F80020FEF75FF87620FEF72F
:1025F0005CF80020FEF759F87720FEF756F8002027
:10260000FEF753F86620FEF750F80020FEF74DF86D
:102610008820FEF74AF80020FEF747F89920FEF7D9
:1026200044F80020FEF741F8BB20FEF73EF80020FA
:10263000FEF73BF89920FEF738F80020FEF735F852
:102640006620FEF732F80020FEF72FF85520FEF73F
:102650002CF80020FEF729F85520FEF726F8002078
:10266000FEF723F84520FEF720F80020FEF71DF8BE
:102670004320FEF71AF80020FEF717F84420FEF773
:1026800014F80020FEF711F8E720FEF70BF83220CF
:10269000FEF70BF80020FEF708F85520FEF705F8C6
:1026A0000020FEF702F87620FDF7FFFF0020FDF77F
:1026B000FCFF6620FDF7F9FF0020FDF7F6FF67201D
:1026C000FDF7F3FF0020FDF7F0FF6720FDF7EDFFBA
:1026D0000020FDF7EAFF8720FDF7E7FF0020FDF768
:1026E000E4FF9920FDF7E1FF0020FDF7DEFFBB20AE
:1026F000FDF7DBFF0020FDF7D8FF9920FDF7D5FFA0
:102700000020FDF7D2FF7720FDF7CFFF0020FDF777
:10271000CCFF4420FDF7C9FF0020FDF7C6FF56207F
:10272000FDF7C3FF0020FDF7C0FF2320FDF7BDFF2D
:102730000020FDF7BAFF3320FDF7B7FF0020FDF7BB
:10274000B4FF4520FDF7B1FF0020FDF7AEFFE82004
:10275000FDF7A8FF0020FDF7A8FF0020FDF7A5FF6B
:102760009920FDF7A2FF0020FDF79FFF8720FDF7CE
:102770009CFF0020FDF799FF8820FDF796FF0020C1
:10278000FDF793FF7720FDF790FF0020FDF78DFF09
:102790006620FDF78AFF0020FDF787FF8820FDF700
:1027A00084FF0020FDF781FFAA20FDF77EFF0020B7
:1027B000FDF77BFFBB20FDF778FF0020FDF775FFDD
:1027C0009920FDF772FF0020FDF76FFF6620FDF7EF
:1027D0006CFF0020FDF769FF5520FDF766FF002024
:1027E000FDF763FF5520FDF760FF0020FDF75DFF5B
:1027F0004420FDF75AFF0020FDF757FF4420FDF766
:1028000054FF0020FDF751FF5520FDF74EFF00203B
:10281000FDF74BFFE920FDF745FFAA20FDF745FF37
:102820000020FDF742FF0020FDF73FFF0020FDF7ED
:102830003CFF0020FDF736FFAA20FDF736FFCF2032
:10284000FDF730FF0020FDF730FF0020FDF72DFFE2
:102850000020FDF72AFF0020FDF727FF0020FDF7ED
:1028600024FF0020FDF721FF0020FDF71EFF0020C0
:10287000FDF71BFF0020FDF718FF0020FDF715FFF7
:102880000020FDF712FF0020FDF70FFF0020FDF7ED
:102890000CFF0020FDF709FF0020FDF706FF0020D8
:1028A000FDF703FF0020FDF700FFF020FDF7FAFE23
:1028B0000020FDF7FAFE5020FDF7F7FE0020FDF79F
:1028C000F4FE0020FDF7F1FE0020FDF7EEFEF32000
:1028D000FDF7E8FE0020FDF7E8FEF920FDF7E2FE37
:1028E0000620FDF7E2FE1020FDF7DFFE2920FDF7B0
:1028F000DCFE0020FDF7D9FE3A20FDF7D3FE55207F
:10290000FDF7D3FE1120FDF7CDFE642003F017F98B
:102910002920FDF7C7FE3520FDF7C4FE0020FDF796
:10292000C4FE5120FDF7BEFEFF20FDF7BEFE532082
:10293000FDF7B8FE2C20FDF7B8FE5520FDF7B2FEDE
:102940008220FDF7B2FE2C20FDF7ACFE02F0E9B8C4
:10295000FE48808845F2105188427DD155214FF4C0
:102960007040FDF7AEFEAA214FF20100FDF7A9FE6F
:1029700052214FF20200FDF7A4FE08214FF203009E
:10298000FDF79FFE01214FF20400FDF79AFE0D2195
:102990004FF43040FDF795FE0D214BF20100FDF79D
:1029A00090FE0D214BF20200FDF78BFE34214FF417
:1029B0003640FDF786FE34214BF20160FDF781FEC3
:1029C00034214BF20260FDF77CFE0D214FF43140C3
:1029D000FDF777FE0D214BF20110FDF772FE0D2180
:1029E0004BF20210FDF76DFE34214FF43740FDF736
:1029F00068FE34214BF20170FDF763FE34214BF287
:102A00000270FDF75EFE00214FF43240FDF759FEE3
:102A100000214BF20120FDF754FE00214BF2022071
:102A2000FDF74FFE24214FF43840FDF74AFE2421E4
:102A30004BF60100FDF745FE24214BF60200FDF7A1
:102A400040FE01214FF43F40FDF73BFE0F214FF4C4
:102A50003340FDF736FE00E0FDE30F214BF201307D
:102A6000FDF72FFE0F214BF20230FDF72AFE342135
:102A70004FF43940FDF725FE34214BF60110FDF7E8
:102A800020FE34214BF60210FDF71BFE08214FF407
:102A90003540FDF716FE08214BF20150FDF711FEFF
:102AA00008214BF20250FDF70CFE03214FF4424087
:102AB000FDF707FE24214FF43A40FDF702FE2421E2
:102AC0004BF60120FDF7FDFD24214BF60220FDF71A
:102AD000F8FD00214FF43C40FDF7F3FD78214BF663
:102AE0000140FDF7EEFD00214BF60240FDF7E9FD48
:102AF00000214FF43D40FDF7E4FD78214BF60150F5
:102B0000FDF7DFFD00214BF60250FDF7DAFD002155
:102B10004FF43E40FDF7D5FD64214BF60160FDF713
:102B2000D0FD00214FF45140FDF7CBFD33214DF294
:102B30000110FDF7C6FD00214DF20210FDF7C1FDA9
:102B400034214DF20310FDF7BCFD00214DF20410BD
:102B5000FDF7B7FD3A214DF20510FDF7B2FD00215A
:102B60004DF20610FDF7ADFD4A214DF20710FDF7BD
:102B7000A8FD00214DF20810FDF7A3FD5C214DF2E8
:102B80000910FDF79EFD00214DF20A10FDF799FD99
:102B900081214DF20B10FDF794FD00214DF20C1038
:102BA000FDF78FFDA6214DF20D10FDF78AFD0021E6
:102BB0004DF20E10FDF785FDE5214DF20F10FDF7EA
:102BC00080FD01214DF21010FDF77BFD13214DF228
:102BD0001110FDF776FD01214DF21210FDF771FD88
:102BE00054214DF21310FDF76CFD01214DF214102C
:102BF000FDF767FD82214DF21510FDF762FD012101
:102C00004DF21610FDF75DFDCA214DF21710FDF7CC
:102C100058FD02214DF21810FDF753FD00214DF231
:102C20001910FDF74EFD02214DF21A10FDF749FD76
:102C300001214DF21B10FDF744FD02214DF21C1045
:102C4000FDF73FFD34214DF21D10FDF73AFD022145
:102C50004DF21E10FDF735FD67214DF21F10FDF7F7
:102C600030FD02214DF22010FDF72BFD84214DF2A5
:102C70002110FDF726FD02214DF22210FDF721FD66
:102C8000A4214DF22310FDF71CFD02214DF224106A
:102C9000FDF717FDB7214DF22510FDF712FD0221BA
:102CA0004DF22610FDF70DFDCF214DF22710FDF757
:102CB00008FD02214DF22810FDF703FDDE214DF243
:102CC0002910FDF7FEFC02214DF22A10FDF7F9FC58
:102CD000F2214DF22B10FDF7F4FC02214DF22C10E5
:102CE000FDF7EFFCFE214DF22D10FDF7EAFC03216C
:102CF0004DF22E10FDF7E5FC10214DF22F10FDF7DF
:102D0000E0FC03214DF23010FDF7DBFC33214DF2E6
:102D10003110FDF7D6FC03214DF23210FDF7D1FC46
:102D20006D214DF23310FDF7CCFC00214FF45240E1
:102D3000FDF7C7FC33214DF20120FDF7C2FC002155
:102D40004DF20220FDF7BDFC342101E044000020DB
:102D50004DF20320FDF7B5FC00214DF20420FDF7F4
:102D6000B0FC3A214DF20520FDF7ABFC00214DF2FD
:102D70000620FDF7A6FC4A214DF20720FDF7A1FC35
:102D800000214DF20820FDF79CFC5C214DF209204A
:102D9000FDF797FC00214DF20A20FDF792FC8121FE
:102DA0004DF20B20FDF78DFC00214DF20C20FDF7BC
:102DB00088FCA6214DF20D20FDF783FC00214DF289
:102DC0000E20FDF77EFCE5214DF20F20FDF779FC8A
:102DD00001214DF21020FDF774FC13214DF211205A
:102DE000FDF76FFC01214DF21220FDF76AFC542122
:102DF0004DF21320FDF765FC01214DF21420FDF783
:102E000060FC82214DF21520FDF75BFC01214DF2A3
:102E10001620FDF756FCCA214DF21720FDF751FC94
:102E200002214DF21820FDF74CFC00214DF2192033
:102E3000FDF747FC02214DF21A20FDF742FC01216B
:102E40004DF21B20FDF73DFC02214DF21C20FDF749
:102E500038FC34214DF21D20FDF733FC02214DF2E8
:102E60001E20FDF72EFC67214DF21F20FDF729FCE7
:102E700002214DF22020FDF724FC84214DF2212077
:102E8000FDF71FFC02214DF22220FDF71AFCA421C0
:102E90004DF22320FDF715FC02214DF22420FDF711
:102EA00010FCB7214DF22520FDF70BFC02214DF25D
:102EB0002620FDF706FCCF214DF22720FDF701FC6F
:102EC00002214DF22820FDF7FCFBDE214DF22920E6
:102ED000FDF7F7FB02214DF22A20FDF7F2FBF2216C
:102EE0004DF22B20FDF7EDFB02214DF22C20FDF7DA
:102EF000E8FBFE214DF22D20FDF7E3FB03214DF20F
:102F00002E20FDF7DEFB10214DF22F20FDF7D9FB1F
:102F100003214DF23020FDF7D4FB33214DF2312057
:102F2000FDF7CFFB03214DF23220FDF7CAFB6D21E7
:102F30004DF23320FDF7C5FB00214FF45340FDF760
:102F4000C0FB33214DF20130FDF7BBFB00214DF2F8
:102F50000230FDF7B6FB34214DF20330FDF7B1FB33
:102F600000214DF20430FDF7ACFB3A214DF2053063
:102F7000FDF7A7FB00214DF20630FDF7A2FB4A2129
:102F80004DF20730FDF79DFB00214DF20830FDF7B3
:102F900098FB5C214DF20930FDF793FB00214DF2C7
:102FA0000A30FDF78EFB81214DF20B30FDF789FBD6
:102FB00000214DF20C30FDF784FBA6214DF20D30BF
:102FC000FDF77FFB00214DF20E30FDF77AFBE52186
:102FD0004DF20F30FDF775FB01214DF21030FDF77A
:102FE00070FB13214DF21130FDF76BFB01214DF207
:102FF0001230FDF766FB54214DF21330FDF761FBF3
:1030000001214DF21430FDF75CFB82214DF21530A9
:10301000FDF757FB01214DF21630FDF752FBCA2197
:103020004DF21730FDF74DFB02214DF21830FDF740
:1030300048FB00214DF21930FDF743FB02214DF210
:103040001A30FDF73EFB01214DF21B30FDF739FB35
:1030500002214DF21C30FDF734FB34214DF21D30BE
:10306000FDF72FFB02214DF21E30FDF72AFB6721F1
:103070004DF21F30FDF725FB02214DF22030FDF708
:1030800020FB84214DF22130FDF71BFB02214DF284
:103090002230FDF716FBA4214DF22330FDF711FB82
:1030A00002214DF22430FDF70CFBB7214DF2253003
:1030B000FDF707FB02214DF22630FDF702FBCF2181
:1030C0004DF22730FDF7FDFA02214DF22830FDF7D1
:1030D000F8FADE214DF22930FDF7F3FA02214DF224
:1030E0002A30FDF7EEFAF2214DF22B30FDF7E9FA26
:1030F00002214DF22C30FDF7E4FAFE214DF22D3085
:10310000FDF7DFFA03214DF22E30FDF7DAFA102138
:103110004DF22F30FDF7D5FA03214DF23030FDF797
:10312000D0FA33214DF23130FDF7CBFA03214DF2C5
:103130003230FDF7C6FA6D214DF23330FDF7C1FA9A
:1031400000214FF45440FDF7BCFA33214DF2014009
:10315000FDF7B7FA00214DF20240FDF7B2FA342133
:103160004DF20340FDF7ADFA00214DF20440FDF7AA
:10317000A8FA3A214DF20540FDF7A3FA00214DF2DD
:103180000640FDF79EFA4A214DF20740FDF799FAF5
:1031900000214DF20840FDF794FA5C214DF2094000
:1031A000FDF78FFA00214DF20A40FDF78AFA8121DE
:1031B0004DF20B40FDF785FA00214DF20C40FDF772
:1031C00080FAA6214DF20D40FDF77BFA00214DF269
:1031D0000E40FDF776FAE5214DF20F40FDF771FA4A
:1031E00001214DF21040FDF76CFA13214DF2114010
:1031F000FDF767FA01214DF21240FDF762FA542102
:103200004DF21340FDF75DFA01214DF21440FDF738
:1032100058FA82214DF21540FDF753FA01214DF283
:103220001640FDF74EFACA214DF21740FDF749FA54
:1032300002214DF21840FDF744FA00214DF21940E9
:10324000FDF73FFA02214DF21A40FDF73AFA01214B
:103250004DF21B4000E006E3FDF733FA02214DF288
:103260001C40FDF72EFA34214DF21D40FDF729FADE
:1032700002214DF21E40FDF724FA67214DF21F4056
:10328000FDF71FFA02214DF22040FDF71AFA8421C2
:103290004DF22140FDF715FA02214DF22240FDF7D3
:1032A00010FAA4214DF22340FDF70BFA02214DF252
:1032B0002440FDF706FAB7214DF22540FDF701FA4B
:1032C00002214DF22640FDF7FCF9CF214DF22740B7
:1032D000FDF7F7F902214DF22840FDF7F2F9DE2162
:1032E0004DF22940FDF7EDF902214DF22A40FDF79C
:1032F000E8F9F2214DF22B40FDF7E3F902214DF2FE
:103300002C40FDF7DEF9FE214DF22D40FDF7D9F9F5
:1033100003214DF22E40FDF7D4F910214DF22F403C
:10332000FDF7CFF903214DF23040FDF7CAF9332103
:103330004DF23140FDF7C5F903214DF23240FDF762
:10334000C0F96D214DF23340FDF7BBF900214FF478
:103350005540FDF7B6F933214DF20150FDF7B1F9B3
:1033600000214DF20250FDF7ACF934214DF203502B
:10337000FDF7A7F900214DF20450FDF7A2F93A211B
:103380004DF20550FDF79DF900214DF20650FDF775
:1033900098F94A214DF20750FDF793F900214DF2BB
:1033A0000850FDF78EF95C214DF20950FDF789F9BF
:1033B00000214DF20A50FDF784F981214DF20B50A6
:1033C000FDF77FF900214DF20C50FDF77AF9A621A7
:1033D0004DF20D50FDF775F900214DF20E50FDF73D
:1033E00070F9E5214DF20F50FDF76BF901214DF217
:1033F0001050FDF766F913214DF21150FDF761F9F8
:1034000001214DF21250FDF75CF954214DF2135099
:10341000FDF757F901214DF21450FDF752F98221C1
:103420004DF21550FDF74DF901214DF21650FDF703
:1034300048F9CA214DF21750FDF743F902214DF228
:103440001850FDF73EF900214DF21950FDF739F9FA
:1034500002214DF21A50FDF734F901214DF21B50B3
:10346000FDF72FF902214DF21C50FDF72AF9342106
:103470004DF21D50FDF725F902214DF21E50FDF7CA
:1034800020F967214DF21F50FDF71BF902214DF283
:103490002050FDF716F984214DF22150FDF711F966
:1034A00002214DF22250FDF70CF9A4214DF22350D8
:1034B000FDF707F902214DF22450FDF702F9B7217B
:1034C0004DF22550FDF7FDF802214DF22650FDF793
:1034D000F8F8CF214DF22750FDF7F3F802214DF215
:1034E0002850FDF7EEF8DE214DF22950FDF7E9F8FE
:1034F00002214DF22A50FDF7E4F8F2214DF22B5053
:10350000FDF7DFF802214DF22C50FDF7DAF8FE212D
:103510004DF22D50FDF7D5F803214DF22E50FDF759
:10352000D0F810214DF22F50FDF7CBF803214DF2CA
:103530003050FDF7C6F833214DF23150FDF7C1F898
:1035400003214DF23250FDF7BCF86D214DF233509E
:10355000FDF7B7F800214FF45640FDF7B2F83321DC
:103560004DF20160FDF7ADF800214DF20260FDF76C
:10357000A8F834214DF20360FDF7A3F800214DF2C5
:103580000460FDF79EF83A214DF20560FDF799F8C9
:1035900000214DF20660FDF794F84A214DF20760D4
:1035A000FDF78FF800214DF20860FDF78AF85C21E5
:1035B0004DF20960FDF785F800214DF20A60FDF734
:1035C00080F881214DF20B60FDF77BF800214DF270
:1035D0000C60FDF776F8A6214DF20D60FDF771F84D
:1035E00000214DF20E60FDF76CF8E5214DF20F6001
:1035F000FDF767F801214DF21060FDF762F8132125
:103600004DF21160FDF75DF801214DF21260FDF7FA
:1036100058F854214DF21360FDF753F801214DF293
:103620001460FDF74EF882214DF21560FDF749F860
:1036300001214DF21660FDF744F8CA214DF21760E2
:10364000FDF73FF802214DF21860FDF73AF800212E
:103650004DF21960FDF735F802214DF21A60FDF7C1
:1036600030F801214DF21B60FDF72BF802214DF2DD
:103670001C60FDF726F834214DF21D60FDF721F89E
:1036800002214DF21E60FDF71CF867214DF21F600C
:10369000FDF717F802214DF22060FDF712F88421A2
:1036A0004DF22160FDF70DF802214DF22260FDF789
:1036B00008F8A4214DF22360FDF703F802214DF232
:1036C0002460FCF7FEFFB7214DF22560FCF7F9FFFF
:1036D00002214DF22660FCF7F4FFCF214DF2276066
:1036E000FCF7EFFF02214DF22860FCF7EAFFDE2134
:1036F0004DF22960FCF7E5FF02214DF22A60FCF74C
:10370000E0FFF2214DF22B60FCF7DBFF02214DF2CE
:103710002C60FCF7D6FFFE214DF22D60FCF7D1FFA7
:1037200003214DF22E60FCF7CCFF10214DF22F60EB
:10373000FCF7C7FF03214DF23060FCF7C2FF3321D5
:103740004DF23160FCF7BDFF03214DF23260FCF712
:10375000B8FF6D214DF23360FCF7B3FF55214FF4F4
:103760007040FCF7AEFFAA214FF20100FCF7A9FF61
:1037700052214FF20200FCF7A4FF08214FF2030090
:10378000FCF79FFF00214FF20400FCF79AFFCC21C9
:103790004FF43140FCF795FF00214BF20110FCF78C
:1037A00090FF05214FF43640FCF78BFF70214FF45A
:1037B0003740FCF786FF70214BF20170FCF781FF68
:1037C00001214FF43840FCF77CFF03214BF6010048
:1037D000FCF777FF03214BF60200FCF772FF032191
:1037E0004BF60300FCF76DFF02214FF43C40FCF761
:1037F00068FF00214BF60140FCF763FF00214BF608
:103800000240FCF75EFFD0214FF44940FCF759FF1E
:1038100002214CF60110FCF754FF50214CF6021027
:10382000FCF74FFF50214CF60310FCF74AFF5021E4
:103830004CF60410FCF745FF00214FF45450FCF700
:1038400040FF55214FF46850FCF73BFF4FF4885080
:10385000FCF728FF782002F04EF94FF42450FCF7D3
:1038600021FF01F05EB9FE48808849F22531884287
:103870007ED147F6F001E520FCF723FF4FF480717D
:103880000120FCF71EFF4FF4E0610220FCF719FF56
:1038900041F230010320FCF714FF00210420FCF763
:1038A00010FF40F202210820FCF70BFF0021092045
:1038B000FCF707FF00210A20FCF703FF00210C2082
:1038C000FCF7FFFE00210D20FCF7FBFE00210F207E
:1038D000FCF7F7FE00211020FCF7F3FE0721112072
:1038E000FCF7EFFE00211220FCF7EBFE0021132075
:1038F000FCF7E7FE00210720FCF7E3FE41F29061B0
:103900001020FCF7DEFE40F227211120FCF7D9FE43
:103910009D211220FCF7D5FE4FF4C8511320FCF76F
:10392000D0FE25212920FCF7CCFE0D212B20FCF711
:10393000C8FE07213020FCF7C4FE40F203313120DD
:10394000FCF7BFFE03213220FCF7BBFE40F206214C
:103950003520FCF7B6FE08213620FCF7B2FE40F217
:1039600006413720FCF7ADFE4FF44171382000E0EE
:1039700057E0FCF7A6FE07213920FCF7A2FE40F233
:1039800002613C20FCF79DFE08213D20FCF799FEDA
:1039900000215020FCF795FEEF215120FCF791FE0D
:1039A00000215220FCF78DFE40F23F115320FCF71E
:1039B00088FE4FF427416020FCF783FE012161203F
:1039C000FCF77FFE00216A20FCF77BFE00218020AF
:1039D000FCF777FE00218120FCF773FE0021822096
:1039E000FCF76FFE00218320FCF76BFE0021842092
:1039F000FCF767FE00218520FCF763FE1021902074
:103A0000FCF75FFE4FF4C0619220FCF75AFE40F2D3
:103A100033110720FCF755FE22210020FCF751FE50
:103A20001FE78F48808849F2283188427ED141F2D1
:103A30008F01EC20FCF745FE41F23421EF20FCF72A
:103A400040FE4FF480710120FCF73BFE4FF4E06133
:103A50000220FCF736FE41F230010320FCF731FE74
:103A600000210420FCF72DFE40F202210820FCF783
:103A700028FE00210920FCF724FE00210A20FCF783
:103A800020FE01210C20FCF71CFE00210D20FCF77C
:103A900018FE00210F20FCF714FE00211020FCF777
:103AA00010FE07211120FCF70CFE00211220FCF76C
:103AB00008FE00211320FCF704FE01210720FCF77B
:103AC00000FE322002F03BF841F290411020FCF75A
:103AD000F8FD40F227211120FCF7F3FD322002F01F
:103AE0002EF88A211220FCF7ECFD322002F027F894
:103AF0004FF4D0511320FCF7E4FD06212920FCF7F8
:103B0000E0FD0D212B20FCF7DCFD322002F017F840
:103B100000212020FCF7D5FD00212120FCF7D1FD5C
:103B2000322002F00CF80021302000E074E0FCF7B5
:103B3000C8FD40F204613120FCF7C3FD40F20531BD
:103B40003220FCF7BEFD00213520FCF7BAFD40F61F
:103B500009413620FCF7B5FD4FF401713720FCF721
:103B6000B0FD40F201313820FCF7ABFD40F20771A7
:103B70003920FCF7A6FD00213C20FCF7A2FD40F611
:103B80000A213D20FCF79DFD322001F0D8FF0021E5
:103B90005020FCF796FDEF215120FCF792FD00210B
:103BA0005220FCF78EFD40F23F115320FCF789FDB7
:103BB0004FF427416020FCF784FD01216120FCF7D0
:103BC00080FD00216A20FCF77CFD00218020FCF7AD
:103BD00078FD00218120FCF774FD00218220FCF794
:103BE00070FD00218320FCF76CFD00218420FCF790
:103BF00068FD00218520FCF764FD10219020FCF772
:103C000060FD4FF4C0619220FCF75BFD40F2331180
:103C10000720FCF756FD24E61148808849F2203140
:103C200088427DD100210846FCF74BFD4FF480719E
:103C30000120FCF746FD4FF4E0610220FCF741FD56
:103C400041F230010320FCF73CFD00210420FCF789
:103C500038FD40F202210820FCF733FD002101E08D
:103C6000440000200920FCF72CFD00210A20FCF76D
:103C700028FD01210C20FCF724FD00210D20FCF77C
:103C800020FD00210F20FCF71CFD322001F057FF22
:103C900040F201110720FCF714FD322001F04FFF24
:103CA0004FF486511020FCF70CFD07211120FCF782
:103CB00008FD4FF488711220FCF703FD4FF43061CA
:103CC0001320FCF7FEFC00212920FCF7FAFC44F24B
:103CD00010012B20FCF7F5FC00215020FCF7F1FC33
:103CE000EF215120FCF7EDFC00215220FCF7E9FC0C
:103CF00040F23F115320FCF7E4FC4FF41C516020CC
:103D0000FCF7DFFC01216120FCF7DBFC00216A20CD
:103D1000FCF7D7FC00218020FCF7D3FC002100E059
:103D200031E08120FCF7CDFC00218220FCF7C9FCAA
:103D300000218320FCF7C5FC00218420FCF7C1FC96
:103D400000218520FCF7BDFC10219020FCF7B9FC78
:103D500000219220FCF7B5FC01219320FCF7B1FC77
:103D60004FF488719520FCF7ACFC00219720FCF7FC
:103D7000A8FC00219820FCF7A4FC40F27311072056
:103D8000FCF79FFC6DE5FE48808849F2313188429E
:103D90007DD141F21401E720FCF793FC4FF48071D0
:103DA0000120FCF78EFC4FF400710220FCF789FC27
:103DB00041F238010320FCF784FC40F20221082084
:103DC000FCF77FFC00210920FCF77BFC00210A2086
:103DD000FCF777FC00210C20FCF773FC00210D2080
:103DE000FCF76FFC00210F20FCF76BFC002110207A
:103DF000FCF767FC07211120FCF763FC002112206F
:103E0000FCF75FFC00211320FCF75BFCC82001F0ED
:103E100096FE41F290611020FCF753FC40F22721FE
:103E20001120FCF74EFC322001F089FE0C211220FB
:103E3000FCF747FC322001F082FE4FF400611320B2
:103E4000FCF73FFC11212920FCF73BFC0B212B2028
:103E5000FCF737FC322001F072FE00212020FCF735
:103E600030FC40F23F112120FCF72BFC00213020D8
:103E7000FCF727FC4FF483713120FCF722FC002172
:103E80003220FCF71EFC4FF40171352000E064E0A5
:103E9000FCF717FC41F20A613620FCF712FC40F2F5
:103EA00007713720FCF70DFC4FF483713820FCF7C5
:103EB00008FC40F207713920FCF703FC40F2024194
:103EC0003C20FCF7FEFB40F60F413D20FCF7F9FBE0
:103ED00000215020FCF7F5FBEF215120FCF7F1FB0E
:103EE00000215220FCF7EDFB40F23F115320FCF77C
:103EF000E8FB4FF41C516020FCF7E3FB012161203B
:103F0000FCF7DFFB00216A20FCF7DBFB00218020AF
:103F1000FCF7D7FB00218120FCF7D3FB0021822096
:103F2000FCF7CFFB00218320FCF7CBFB0021842092
:103F3000FCF7C7FB00218520FCF7C3FB1021902074
:103F4000FCF7BFFB4FF4C0619220FCF7BAFB40F2D4
:103F500033110720FCF7B5FB83E48948808845F2DC
:103F6000084188427ED14FF480710120FCF7A9FB03
:103F70004FF4E0610220FCF7A4FB41F23001032082
:103F8000FCF79FFB00210420FCF79BFB40F207217C
:103F90000820FCF796FB00210920FCF792FB00218A
:103FA0000A20FCF78EFB00210C20FCF78AFB002185
:103FB0000D20FCF786FB00210F20FCF782FB14206C
:103FC00001F0BDFD41F2B0611020FCF77AFB012148
:103FD0001120FCF776FB01211720FCF772FB4FF450
:103FE0009C711220FCF76DFB4FF400611320FCF76D
:103FF00068FB09212920FCF764FB09212A20FCF732
:1040000060FB0021A420FCF75CFB00215020FCF7A2
:1040100058FBEF215120FCF754FB00215220FCF704
:1040200050FB40F23F115320FCF74BFB4FF41C5167
:104030006020FCF746FB01216120FCF742FB0021D8
:104040006A20FCF73EFB00218020FCF73AFB0021B0
:104050008120FCF736FB00218220FCF732FB002197
:10406000832000E023E0FCF72CFB00218420FCF7F8
:1040700028FB00218520FCF724FB13219020FCF76E
:1040800020FB00219220FCF71CFB03219320FCF76E
:1040900018FB4FF488719520FCF713FB40F2731165
:1040A0000720FCF70EFB322001F049FDB8E434484C
:1040B000808841F2055188427ED100210720FCF71B
:1040C00000FB322001F03BFD4FF48E711220FCF713
:1040D000F8FA0121A420FCF7F4FA0F210820FCF7DC
:1040E000F0FA08210A20FCF7ECFA08210D20FCF771
:1040F000E8FA40F207713020FCF7E3FA072131209B
:10410000FCF7DFFA40F203613220FCF7DAFA4FF4F1
:10411000E0613320FCF7D5FA40F202213420FCF7AD
:10412000D0FA02213520FCF7CCFA41F60F71362087
:10413000FCF7C7FA40F207713720FCF7C2FA0021FA
:104140003820FCF7BEFA00213920FCF7BAFA40F219
:1041500007713A20FCF7B5FA00213B20FCF7B1FAD1
:1041600007213C20FCF7ADFA00213D20FCF7A9FA1D
:10417000322001F0E4FC01210720FCF7A2FA01E063
:104180004400002001211720FCF79BFA322001F0A7
:10419000D6FC4FF4BD511020FCF793FA40F21721E2
:1041A0001120FCF78EFA4FF48F711220FCF789FA78
:1041B0004FF47061132000E097E0FCF782FA0021D1
:1041C0002A20FCF77EFA0A212920FCF77AFA4FF41C
:1041D0009F711220FCF775FA00215020FCF771FA4C
:1041E000EF215120FCF76DFA00215220FCF769FA0B
:1041F00040F23F115320FCF764FA4FF41C51602049
:10420000FCF75FFA01216120FCF75BFA00216A20CC
:10421000FCF757FA00218020FCF753FA0021812097
:10422000FCF74FFA00218220FCF74BFA0021832093
:10423000FCF747FA00218420FCF743FA002185208F
:10424000FCF73FFA13219020FCF73BFA4FF4407142
:104250009220FCF736FA05219320FCF732FA002170
:104260009520FCF72EFA00219720FCF72AFA00216E
:104270009820FCF726FA4FF480710120FCF721FA10
:104280004FF4E0610220FCF71CFA41F238010320F0
:10429000FCF717FA00210420FCF713FA00210C2088
:1042A000FCF70FFA00210F20FCF70BFA0021202069
:1042B000FCF707FA00212120FCF703FA212107204F
:1042C000FCF7FFF9142001F03AFC61210720FCF70C
:1042D000F8F9142001F033FC40F273110720FCF7C9
:1042E000F0F9142001F02BFC95E4FE4880884BF295
:1042F000055188427ED100210846FCF7E2F90021F1
:104300000846FCF7DEF900210846FCF7DAF900213F
:104310000846FCF7D6F90121A420FCF7D2F91420B5
:1043200001F00DFC4FF41C516020FCF7CAF940F27B
:1043300002210820FCF7C5F94FF405713020FCF785
:10434000C0F943F215713120FCF7BBF940F204616A
:104350003220FCF7B6F940F616613320FCF7B1F9CC
:1043600042F211213420FCF7ACF94FF4A85135206A
:10437000FCF7A7F948F207513620FCF7A2F941F201
:1043800007413720FCF79DF941F203413820FCF743
:1043900098F920213920FCF794F91A219020FCF794
:1043A00090F900211020FCF78CF907211120FCF76F
:1043B00088F900211220FCF784F900211320FCF772
:1043C00080F9142001F0BBFB4FF4E6611020FCF7EC
:1043D00078F940F237111120FCF773F9142001F03D
:1043E000AEFB4FF4DC711220FCF76BF9142001F0E6
:1043F000A6FB00E083E04FF470611320FCF761F945
:1044000080212A20FCF75DF948212920FCF759F981
:10441000142001F094FB4FF480710120FCF751F956
:104420004FF4E0610220FCF74CF941F2380103201F
:10443000FCF747F940F202210820FCF742F900217D
:104440000A20FCF73EF900210C20FCF73AF9002184
:104450000D20FCF736F930210E20FCF732F900214F
:104460005020FCF72EF9EF215120FCF72AF900210A
:104470005220FCF726F940F23F115320FCF721F9B6
:104480004FF41C516020FCF71CF901216120FCF75E
:1044900018F900216A20FCF714F911219020FCF78B
:1044A00010F94FF4C0619220FCF70BF940F2024181
:1044B0009320FCF706F902219420FCF702F914205E
:1044C00001F03DFB01210720FCF7FBF8142001F06F
:1044D00036FB61210720FCF7F4F840F27311072046
:1044E000FCF7EFF800212020FCF7EBF80021212059
:1044F000FCF7E7F822210020FCF7E3F811E3794804
:1045000080884CF2055188427ED100210846FCF794
:10451000D8F800210846FCF7D4F8142001F00FFB6E
:1045200000210846FCF7CDF800210846FCF7C9F841
:1045300000210846FCF7C5F800210846FCF7C1F841
:104540000121A420FCF7BDF8142001F0F8FA4FF483
:104550001C516020FCF7B5F840F606010820FCF776
:10456000B0F840F203713020FCF7ABF801213120A4
:10457000FCF7A7F804213220FCF7A3F84FF481716F
:104580003320FCF79EF84FF440713420FCF799F883
:1045900040F203113520FCF794F81F213620FCF778
:1045A00090F840F203713720FCF78BF80121382096
:1045B000FCF787F804213920FCF783F815219020B7
:1045C000FCF77FF84FF482611020FCF77AF840F294
:1045D00047211120FCF775F84FF4DE711220FCF72B
:1045E00070F84FF460611320FCF76BF8782001F04D
:1045F000A6FA4FF480710120FCF763F84FF40071C4
:104600000220FCF75EF800E050E041F230010320A8
:10461000FCF757F808210A20FCF753F800210C207A
:10462000FCF74FF820210E20FCF74BF800210F205B
:10463000FCF747F800212020FCF743F80021212057
:10464000FCF73FF83D212A20FCF73BF8142001F04D
:1046500076FA2D212920FCF734F800215020FCF7B0
:1046600030F84DF2EF015120FCF72BF800215220D9
:10467000FCF727F840F23F115320FCF722F8002105
:104680006120FCF71EF800216A20FCF71AF84FF4AD
:1046900040719220FCF715F805219320FCF711F8E2
:1046A0004FF480710720FCF70CF83AE20D4880883F
:1046B00044F2315188427CD101210020FCF701F8FD
:1046C0000A2001F03CFA41F228611020FBF7F9FFC3
:1046D0000E211220FBF7F5FF40F639211320FBF7DE
:1046E000F0FF01E0440000200A2001F028FA4021F8
:1046F0001120FBF7E6FF50211520FBF7E2FF0A200F
:1047000001F01DFA1E211220FBF7DBFF0A2001F049
:1047100016FA4FF4B1511020FBF7D3FF42F63921BE
:104720001320FBF7CEFF0A2001F009FA4FF4807145
:104730000120FBF7C6FF4FF440710220FBF7C1FFD9
:1047400041F238010320FBF7BCFF40F202210820B0
:10475000FBF7B7FF08210A20FBF7B3FF0021302049
:10476000FBF7AFFF40F202413120FBF7AAFF4FF405
:1047700083713220FBF7A5FF40F203513320FBF792
:10478000A0FF4FF482713420FBF79BFF40F2013110
:104790003520FBF796FF40F207713620FBF791FFBB
:1047A00040F205313720FBF78CFF4FF402713820BF
:1047B00000E040E0FBF785FF40F60B713920FBF786
:1047C00080FF02214120FBF77CFF4FF41C51602049
:1047D000FBF777FF01216120FBF773FF4FF40471B2
:1047E0009020FBF76EFF4FF485719220FBF769FF75
:1047F00004219320FBF765FF4FF48071A020FBF7A5
:1048000060FF01210720FBF75CFF21210720FBF758
:1048100058FF23210720FBF754FF33210720FBF724
:1048200050FF40F233110720FBF74BFF0021A0207F
:10483000FBF747FF75E1F748808844F2355188421D
:104840007ED130211520FBF73CFF10219A20FBF789
:1048500038FF20211120FBF734FF43F228411020BC
:10486000FBF72FFF02211220FBF72BFF41F238014B
:104870001320FBF726FF282001F061F912210846DA
:10488000FBF71FFF282001F05AF943F220411020C6
:10489000FBF717FF43F238011320FBF712FF462006
:1048A00001F04DF900213020FBF70BFF40F20241EF
:1048B0003120FBF706FF40F207313220FBF701FF02
:1048C0004FF441713320FBF7FCFE04213420FBF749
:1048D000F8FE40F201413520FBF7F3FE40F207718C
:1048E0003620FBF7EEFE40F205313720FBF7E9FEFC
:1048F0004FF4C2613820FBF7E4FE4FF4C261392067
:10490000FBF7DFFE4FF480710120FBF7DAFE4FF476
:1049100040710220FBF7D5FE41F230010320FBF786
:10492000D0FE40F608010820FBF7CBFE08210A2044
:10493000FBF7C7FE4FF41C516020FBF7C2FE00E0FE
:1049400031E001216120FBF7BCFE4FF49F71902004
:10495000FBF7B7FE4FF480719220FBF7B2FE4FF4E5
:1049600080719320FBF7ADFE4FF44051A020FBF780
:10497000A8FE1021A320FBF7A4FE01210720FBF7CE
:10498000A0FE21210720FBF79CFE23210720FBF737
:1049900098FE33210720FBF794FE40F233110720E5
:1049A000FBF78FFEBDE09B48808841F6631188428B
:1049B000F8D1E220FBF776FE1D20FBF776FE022001
:1049C000FBF773FE0420FBF770FE642001F093F800
:1049D000E020FBF767FE0120FBF767FE0A2001F0ED
:1049E000AEF8E020FBF75EFE0320FBF75EFE0C2036
:1049F00001F0A5F80120FBF755FE0A2001F09FF811
:104A0000E620FBF74FFE2F20FBF74FFEFF20FBF7C2
:104A10004CFEFF20FBF749FEB020FBF743FE2020B1
:104A2000FBF743FE0020FBF740FE0320FBF73DFEB3
:104A300040F21F30FBF739FE0120FBF736FE40F253
:104A4000DF10FBF732FE0020FBF72FFEB420FBF750
:104A500029FE0420FBF729FE40F21F40FBF725FE4C
:104A60000020FBF722FE2E20FBF71FFE0020FBF7A5
:104A70001CFE0020FBF719FE0020FBF716FE0020AD
:104A8000FBF713FEB620FBF70DFE0220FBF70DFE31
:104A90004FF40370FBF709FE0020FBF706FE17201A
:104AA000FBF703FE1520FBF700FE0020FBF7FDFDE2
:104AB0000020FBF7FAFDF020FBF7F4FD0320FBF7E5
:104AC000F4FD2920FBF7EEFDD020FBF7EBFD0020E5
:104AD000FBF7EBFDBE20FBF7E5FD0520FBF7E5FD51
:104AE000FE20FBF7E2FD0120FBF7DFFD0020FBF7D6
:104AF000DCFD0020FBF7D9FD0020FBF7D6FDB82038
:104B0000FBF7D0FD0320FBF7D0FD0120FBF7CDFD27
:104B1000BA20FBF7C7FD0120FBF7C7FD6420FCF7B7
:104B200024FA0020FCF749FA01203B4908604FF6BF
:104B3000FF70FCF72EFC17B000BD2DE9FC4F0546B9
:104B40000E4617469846DDF82C900020019031481B
:104B5000808846F60401884229D12E4880790128B0
:104B600025D1AB4635462B480088C01B401E86B277
:104B7000474628480088A0EB0B00401E1FFA80F82B
:104B80000020244988712A2048812B2088814346AF
:104B90003A4631462846CDF80090FFF7CEFF012077
:104BA0001C4988712B2048812A2088811CE0781BB1
:104BB000401C80B20190344614E021462846FBF7A1
:104BC000ADFDFBF78EFD4FF0000A06E01348A0F89C
:104BD00000900AF101001FFA80FA01988245F5DB86
:104BE000601C84B24445E8DDBDE8FC8F2DE9F84F38
:104BF00007460D4690469946DDF828B0A8EB070019
:104C0000401C1FFA80FAA9EB0500401C80B20090FE
:104C100000241AE044000020B48122420008006C05
:104C2000281981B23846FBF779FDFBF75AFD0026BB
:104C300007E004FB0A603BF81000F8490880701C8C
:104C400086B25645F5DB601C84B200988442E7DBEF
:104C5000BDE8F88F2DE9FF4F84B081468A460020D9
:104C6000039002900698A0EB09050798A0EB0A06AE
:104C7000CDF80490CDF800A0002D01DD012705E05E
:104C80000DB9002702E04FF0FF376D42002E02DD24
:104C90004FF0010806E016B94FF0000802E04FF0AF
:104CA000FF387642B54201DD2C4600E034464FF035
:104CB000000B21E0009A91B2019A90B2FCF787F8BC
:104CC0000398284403900298304402900398A0422D
:104CD00005DD0398001B0390019838440190029869
:104CE000A04205DD0298001B02900098404400900D
:104CF0000BF101001FFA80FB601C8345DADD08B070
:104D0000BDE8F08FF0B504460D4616461F462B460B
:104D1000324629462046FFF79DFF3B46224629465C
:104D20002046FFF797FF3B46324639462046FFF7BD
:104D300091FF3B46324629463046FFF78BFFF0BDD8
:104D40002DE9F04306460F469046002445460320D1
:104D5000A0EB48093CE07A1B91B2321990B2FCF703
:104D600036F83A1B91B2721990B2FCF730F83A1942
:104D700091B2721990B2FCF72AF87A1991B23219ED
:104D800090B2FCF724F87A1991B2321B90B2FCF77A
:104D90001EF83A1991B2721B90B2FCF718F87A1B00
:104DA00091B2321B90B2FCF712F83A1B91B2721B0F
:104DB00090B2FCF70CF8641CB9F1000F03DAA00004
:104DC000801D814404E0601B80000A3081446D1E18
:104DD000AC42C0DDBDE8F0832DE9F84F80460E46B9
:104DE00017461C46B3462046E31704EB5373DB100B
:104DF00021464FEAE47C04EB5C7C4FEAEC0CA4EB2C
:104E0000CC0CBCF1000F02D04FF0010C01E04FF0D0
:104E1000000C6344224604EBD27C4FEA6C0C03FB8B
:104E20000CF3DBB20093A7F12000C7B2002556E0D7
:104E30000C2C07D107EB4700794901EB800010F8F3
:104E4000059013E0102C05D1764800EB071010F800
:104E500005900BE0182C07D107EBC700724901EB56
:104E6000800010F8059001E0BDE8F88F4FF0000ACF
:104E70002FE009F0800030B16C480288314640468E
:104E8000FBF7B3FF07E00A9828B969480288314662
:104E90004046FBF7AAFF4FEA49604FEA1069701CD1
:104EA00086B264484088B04200DCDDE7A6EB0B0028
:104EB000A0420AD15E4608F101001FFA80F85D4861
:104EC0000088404500DCCFE706E00AF1010000F071
:104ED000FF0ABAF1080FCCDB00BF681CC5B200980E
:104EE0008542A5DB00BFBFE710B50246012000E008
:104EF00050430B1EA1F10104E1B2F9D110BD2DE91F
:104F0000FF4F81B0074691461E460E9D4FF0000AA6
:104F1000002439E0301B401EC1B20A20FFF7E4FF35
:104F2000B9FBF0F00A21B0FBF1F201FB1208BAF173
:104F3000000F16D1701EA04213DDB8F1000F0ED184
:104F40000020AB4605EBDB71491001FB04710090BA
:104F500088B22B4620220299FFF73EFF12E04FF065
:104F6000010A0020AB4605EBDB71491001FB04711F
:104F7000009088B208F13001CAB22B460299FFF7BF
:104F80002BFF00BF601CC4B2B442C3DB05B0BDE858
:104F9000F08F2DE9FF4F82B0064692461F46DDE9AD
:104FA0000F480020019000255CE0781B401EC1B234
:104FB0000A20FFF799FFBAFBF0F00A21B0FBF1F2EB
:104FC00001FB1209019840BB781EA84236DDB9F1F9
:104FD000000F31D108F0800078B108F00100A3463D
:104FE00004EBDB71491001FB0561009088B2234698
:104FF00030220399FFF7F0FE0EE008F00100A3460F
:1050000004EBDB71491001FB0561009088B2234677
:1050100020220399FFF7E0FE22E00FE00008006C79
:105020007A7A0008EE7E0008DE8400081400002072
:1050300016000020440000200120019008F001002B
:10504000A34604EBDB71491001FB0561009088B2B7
:1050500009F13001CAB223460399FFF7BDFE00BF34
:10506000681CC5B2BD42A0DB06B0BDE8F08F2DE9DB
:10507000FC5F05468A4617461C46DDE90C86384625
:1050800002F07CFB009002F099FB8346394602F067
:1050900075FC01904FF0000908E08D49019802F07D
:1050A000A1FB019009F1010000F0FF09C145F4DB0B
:1050B000384602F063FB834623465A46514628464B
:1050C0000096FFF71CFF0C2E1CD1002004EB4401BE
:1050D00005EB4101009088B233462E225146FFF77E
:1050E0007BFE019802F04AFB8346611C01EB410103
:1050F00005EB410188B243465A4651460096FFF7F8
:10510000FEFE17E0002005EBC401009088B2334694
:105110002E225146FFF760FE019802F02FFB8346D6
:10512000611C05EBC10188B243465A4651460096C0
:10513000FFF7E5FEBDE8FC9F2DE9F84704460D4664
:1051400090469946DDE9096704F0FF0A08EB040080
:105150001FFA80F809EB05001FFA80F916E04445B4
:1051600002DB5446A81985B24D4500DB14E000204F
:1051700000903A78334629462046FFF72DFE304608
:1051800006EBD07104EB61018CB27F1C38787E286D
:1051900002DC38782028E2DA00BFBDE8F8872DE984
:1051A000FC4F06460F461446984600974948B0F80B
:1051B00000904FEA48604FEA1068102C03D1600657
:1051C0004FEA106A04E0202C02D1A0064FEA106AD0
:1051D000002549E0202C05D13F4800EB881010F84D
:1051E00005B006E0102C04D13C4800EB081010F884
:1051F00005B00020019031E00BF0800018B1354877
:10520000A0F8009003E0364800883249088039460B
:105210003046FBF7DCFD4FEA4B604FEA106B781C21
:1052200087B230480088B04204DC2A48A0F80090D9
:10523000BDE8FC8F0098381AA0420BD1009F701C6B
:1052400086B228480088B04203DC2248A0F80090CB
:10525000EEE706E00198401CC0B2019001980828D2
:10526000CADB00BF681CC5B25545B3DB1948A0F8BE
:10527000009000BFDCE72DE9F84F06460C461546C6
:105280001F46DDE90BABDDF82890E0B2009038193D
:1052900087B209EB05001FFA80F9D04613E0BC4243
:1052A00002DB009CA81985B24D4500DB0DE04346AA
:1052B000324629462046FFF772FFA01984B208F152
:1052C000010000F0FF08D845E9DD00BFBDE8F88F18
:1052D00000002041140000207A9800083A9200084B
:1052E000160000204400002008B50121080201F04A
:1052F000A5F828208DF803004FF4F070ADF80000F9
:1053000003208DF802006946DB4800F0DBFD102029
:105310008DF803001E20ADF800006946D64800F065
:10532000D1FD0221D44800F07CFE0421D24800F0D7
:1053300078FE0821D04800F074FE1021CE4800F01D
:1053400070FE2021CC4800F050FE4021CA4800F0F9
:105350004CFE8021C84800F048FE4FF48071C648DA
:1053600000F043FE08BD10B51021C34800F057FE01
:105370000221C14800F055FE0421BF4800F051FE53
:105380000821BD4800F04DFE1021BB4800F03AFE58
:1053900004464FF48071B84800F027FE0440012C09
:1053A00009D11E2000F0CBFB2102B34800F01DFE06
:1053B000012800D110BD1021AF4800F023FE0446A3
:1053C0008021AD4800F011FE0440012C0AD11E20BE
:1053D00000F0B5FB8021A84800F007FE012801D1AC
:1053E0000220E7E71021A44800F00CFE044640210B
:1053F000A14800F0FAFD0440012C0AD11E2000F063
:105400009EFB40219C4800F0F0FD012801D10320C3
:10541000D0E71021984800F0F5FD04462021964879
:1054200000F0E3FD0440012C0AD11E2000F087FBB0
:105430002021914800F0D9FD012801D10420B9E7CD
:1054400008218D4800F0EBFD02218B4800F0E9FDBA
:105450000421894800F0E5FD1021874800F0E1FDB6
:105460000821854800F0CEFD04464FF48071824843
:1054700000F0BBFD0440012C0AD11E2000F05FFBB0
:1054800021027D4800F0B1FD012801D1052091E7FE
:105490000821794800F0B6FD04468021764800F0E6
:1054A000A4FD0440012C0AD11E2000F048FB8021FD
:1054B000714800F09AFD012801D106207AE7082101
:1054C0006D4800F09FFD044640216B4800F08DFDC3
:1054D0000440012C0AD11E2000F031FB4021664817
:1054E00000F083FD012801D1072063E7082162480D
:1054F00000F088FD044620215F4800F076FD04405E
:10550000012C0AD11E2000F01AFB20215A4800F07D
:105510006CFD012801D108204CE70421564800F019
:105520007EFD0221544800F07CFD0821524800F025
:1055300078FD1021504800F074FD4FF480714E4802
:1055400000F053FD01280BD11E2000F0F8FA4FF4B3
:105550008071494800F049FD012801D1092029E75F
:105560008021454800F041FD01280AD11E2000F0AD
:10557000E6FA8021404800F038FD012801D10020E2
:1055800018E740213C4800F030FD01280AD11E20D8
:1055900000F0D5FA4021384800F027FD012801D15C
:1055A0000A2007E72021344800F01FFD01280AD116
:1055B0001E2000F0C4FA20212F4800F016FD01281B
:1055C00001D10B20F6E602212B4800F028FD042132
:1055D000294800F026FD0821274800F022FD10216F
:1055E000254800F01EFD4FF48071234800F0FDFCBB
:1055F00001280BD11E2000F0A2FA4FF480711E4842
:1056000000F0F3FC012801D10C20D3E680211A48D8
:1056100000F0EBFC01280AD11E2000F090FA802156
:10562000154800F0E2FC012801D10D20C2E640211E
:10563000114800F0DAFC01280AD11E2000F07FFAA0
:1056400040210D4800F0D1FC012801D10E20B1E627
:105650002021094800F0C9FC01280AD11E2000F0D1
:105660006EFA2021044800F0C0FC012801D10F206F
:10567000A0E614209EE600000020014010B54FF483
:105680007A7218A118A000F0BAF94FF47A7215A135
:1056900017A000F0B4F94FF4FA6212A118A000F0BC
:1056A000AEF94FF47A720FA118A000F0A8F94FF4E8
:1056B000FA620CA118A000F0A2F94FF4FA6209A155
:1056C0001EA000F09CF94FF47A7206A125A000F00C
:1056D00096F94FF47A7227A127A000F090F900F014
:1056E00067F910BD4F4B000041540D0A0000000047
:1056F00041542B43574D4F44453D330D0A000000A4
:1057000041542B5253540D0A0000000041542B43C6
:10571000494653520D0A000041542B43574A415009
:105720003D224645492D57494649222C22313233E4
:10573000333231616161220D0A00000041542B4374
:10574000495053544152543D22544350222C223448
:10575000372E39342E38302E3839222C38300D0A75
:105760000000000041542B4349504D4F44453D310A
:105770000D0A00003E00000041542B4349505345A0
:105780004E440D0A000000002DE9F0439DB0044690
:105790000F4615461E46DDF89080642104A801F0EE
:1057A0001BFD00200190029003902070434632467A
:1057B0002EA104A801F0BEFB04A801F07BFC8146E9
:1057C0004A462CA101A801F0B5FB2BA1204601F00F
:1057D00090FC2946204601F08CFC2BA1204601F0CC
:1057E00088FC31A1204601F084FC3946204601F0B6
:1057F00080FC30A1204601F07CFC2FA1204601F066
:1058000078FC33A1204601F074FC01A9204601F088
:1058100070FC33A1204601F06CFC04A9204601F085
:1058200068FC204601F046FC1DB0BDE8F08370B571
:1058300004460D46002020702BA1204601F059FCA3
:105840002946204601F055FC29A1204601F051FCD3
:105850002BA1204601F04DFC21A1204601F049FC7E
:10586000204601F027FC80B270BD00002C3B257360
:105870002C25730025640000504F5354202F64657D
:1058800076696365732F00002F64617461706F69BE
:105890006E74733F747970653D3520485454502FB1
:1058A000312E310D0A0000006170692D6B65793A67
:1058B000000000000D0A0000486F73743A617069BF
:1058C0002E6865636C6F7564732E636F6D0D0A00CF
:1058D000436F6E74656E742D4C656E6774683A0024
:1058E0000D0A0D0A00000000474554202F0000005B
:1058F0002F20485454502F312E310D0A0000000043
:10590000486F73743A2034372E39342E38302E389D
:10591000390D0A0000B587B00121480400F09BFD55
:105920000121042000F08AFD0420ADF818000320B6
:105930008DF81A0018208DF81B0006A95C4800F0AD
:10594000C1FA0820ADF8180004208DF81B0006A944
:10595000574800F0B7FA26208DF8040003208DF890
:1059600005008DF8060001208DF8070001A800F061
:10597000E0F94FF4E13002900020ADF80C00ADF8F2
:105980000E00ADF81000ADF814000C20ADF81200B8
:1059900002A9484800F0F9FD012240F2255145488E
:1059A00000F08BFE0121434800F07BFE07B000BDF4
:1059B00010B54FF48061404801F0ECFB00203F49F6
:1059C000086010BD2DE9F04107460C461546402100
:1059D000384600F04EFF00260DE014F8011B384653
:1059E00000F0CCFE00BF4021384600F035FF002813
:1059F000F9D0701CC6B2AE42EFDBBDE8F0812DE9F4
:105A0000F04104460E46154616E0FFF7D1FF20464A
:105A100001F050FBC7B23A4621462648FFF7D2FFB5
:105A2000A8B200F08CF83146234801F031FB00B1F8
:105A300003E0642000F083F8E7E700BFBDE8F081F1
:105A40001E480068704770B505460C4625B12246D1
:105A50001949284601F059FBFFF7AAFF70BD10B5A0
:105A60001449098801F00F0119B11249091D08886C
:105A70001CE01049098801F02001B9B10D49091D48
:105A800008880E4A11684A1C0C4C22600A4A50547D
:105A90003E2802D101210A4A11600849096840F2F2
:105AA000FF32914202D30021044A116010BD000070
:105AB0000008014000440040520000201C0000206B
:105AC0002000002010B56FF0040000F07CF92E4893
:105AD00000682E49B0FBF1F02D49087008460078A7
